{
  "_format": "hh-sol-artifact-1",
  "contractName": "MiningFundLPManageV3",
  "sourceName": "contracts/MiningFund.sol",
  "abi": [
    {
      "inputs": [
        {
          "internalType": "address",
          "name": "_token0",
          "type": "address"
        },
        {
          "internalType": "address",
          "name": "_token1",
          "type": "address"
        },
        {
          "internalType": "address",
          "name": "_routerAddress",
          "type": "address"
        },
        {
          "internalType": "address",
          "name": "_zapAddress",
          "type": "address"
        },
        {
          "internalType": "address",
          "name": "_yuzuParkAddress",
          "type": "address"
        },
        {
          "internalType": "uint256",
          "name": "_poolId",
          "type": "uint256"
        }
      ],
      "stateMutability": "nonpayable",
      "type": "constructor"
    },
    {
      "anonymous": false,
      "inputs": [
        {
          "indexed": true,
          "internalType": "address",
          "name": "previousOwner",
          "type": "address"
        },
        {
          "indexed": true,
          "internalType": "address",
          "name": "newOwner",
          "type": "address"
        }
      ],
      "name": "OwnershipTransferred",
      "type": "event"
    },
    {
      "inputs": [],
      "name": "balanceInStake",
      "outputs": [
        {
          "internalType": "uint256",
          "name": "",
          "type": "uint256"
        },
        {
          "internalType": "uint256",
          "name": "",
          "type": "uint256"
        }
      ],
      "stateMutability": "view",
      "type": "function"
    },
    {
      "inputs": [
        {
          "components": [
            {
              "internalType": "address",
              "name": "to",
              "type": "address"
            },
            {
              "internalType": "uint256",
              "name": "value",
              "type": "uint256"
            },
            {
              "internalType": "bytes",
              "name": "data",
              "type": "bytes"
            }
          ],
          "internalType": "struct MiningFundLPManageV2.Call[]",
          "name": "calls",
          "type": "tuple[]"
        }
      ],
      "name": "exec",
      "outputs": [],
      "stateMutability": "nonpayable",
      "type": "function"
    },
    {
      "inputs": [],
      "name": "factoryContractIns",
      "outputs": [
        {
          "internalType": "contract IUniswapV2Factory",
          "name": "",
          "type": "address"
        }
      ],
      "stateMutability": "view",
      "type": "function"
    },
    {
      "inputs": [],
      "name": "lpToken",
      "outputs": [
        {
          "internalType": "contract ERC20",
          "name": "",
          "type": "address"
        }
      ],
      "stateMutability": "view",
      "type": "function"
    },
    {
      "inputs": [],
      "name": "owner",
      "outputs": [
        {
          "internalType": "address",
          "name": "",
          "type": "address"
        }
      ],
      "stateMutability": "view",
      "type": "function"
    },
    {
      "inputs": [],
      "name": "poolId",
      "outputs": [
        {
          "internalType": "uint256",
          "name": "",
          "type": "uint256"
        }
      ],
      "stateMutability": "view",
      "type": "function"
    },
    {
      "inputs": [],
      "name": "rebalance",
      "outputs": [],
      "stateMutability": "nonpayable",
      "type": "function"
    },
    {
      "inputs": [
        {
          "internalType": "address",
          "name": "_shareAddress",
          "type": "address"
        },
        {
          "internalType": "uint256",
          "name": "_amount",
          "type": "uint256"
        }
      ],
      "name": "redeem",
      "outputs": [],
      "stateMutability": "nonpayable",
      "type": "function"
    },
    {
      "inputs": [],
      "name": "renounceOwnership",
      "outputs": [],
      "stateMutability": "nonpayable",
      "type": "function"
    },
    {
      "inputs": [],
      "name": "routerContractIns",
      "outputs": [
        {
          "internalType": "contract IUniswapV2Router02",
          "name": "",
          "type": "address"
        }
      ],
      "stateMutability": "view",
      "type": "function"
    },
    {
      "inputs": [],
      "name": "stakeAll",
      "outputs": [],
      "stateMutability": "nonpayable",
      "type": "function"
    },
    {
      "inputs": [],
      "name": "staticsInfos",
      "outputs": [
        {
          "internalType": "uint256",
          "name": "originToken0Total",
          "type": "uint256"
        },
        {
          "internalType": "uint256",
          "name": "currShareToken0Balance",
          "type": "uint256"
        },
        {
          "internalType": "uint256",
          "name": "originToken0ArchorAmount",
          "type": "uint256"
        },
        {
          "internalType": "uint256",
          "name": "originToken1Total",
          "type": "uint256"
        },
        {
          "internalType": "uint256",
          "name": "currShareToken1Balance",
          "type": "uint256"
        },
        {
          "internalType": "uint256",
          "name": "originToken1ArchorAmount",
          "type": "uint256"
        }
      ],
      "stateMutability": "view",
      "type": "function"
    },
    {
      "inputs": [
        {
          "internalType": "address",
          "name": "_originTokenAddress",
          "type": "address"
        },
        {
          "internalType": "uint256",
          "name": "_amount",
          "type": "uint256"
        }
      ],
      "name": "subscribe",
      "outputs": [],
      "stateMutability": "nonpayable",
      "type": "function"
    },
    {
      "inputs": [],
      "name": "token0",
      "outputs": [
        {
          "internalType": "contract ShareToken",
          "name": "shareToken",
          "type": "address"
        },
        {
          "internalType": "contract IERC20",
          "name": "originToken",
          "type": "address"
        },
        {
          "internalType": "uint256",
          "name": "originArchorAmount",
          "type": "uint256"
        }
      ],
      "stateMutability": "view",
      "type": "function"
    },
    {
      "inputs": [],
      "name": "token1",
      "outputs": [
        {
          "internalType": "contract ShareToken",
          "name": "shareToken",
          "type": "address"
        },
        {
          "internalType": "contract IERC20",
          "name": "originToken",
          "type": "address"
        },
        {
          "internalType": "uint256",
          "name": "originArchorAmount",
          "type": "uint256"
        }
      ],
      "stateMutability": "view",
      "type": "function"
    },
    {
      "inputs": [
        {
          "internalType": "address",
          "name": "newOwner",
          "type": "address"
        }
      ],
      "name": "transferOwnership",
      "outputs": [],
      "stateMutability": "nonpayable",
      "type": "function"
    },
    {
      "inputs": [],
      "name": "unstakeAll",
      "outputs": [],
      "stateMutability": "nonpayable",
      "type": "function"
    },
    {
      "inputs": [],
      "name": "withdrawRewards",
      "outputs": [],
      "stateMutability": "nonpayable",
      "type": "function"
    },
    {
      "inputs": [],
      "name": "yuzuParkIns",
      "outputs": [
        {
          "internalType": "contract IYUZUPark",
          "name": "",
          "type": "address"
        }
      ],
      "stateMutability": "view",
      "type": "function"
    },
    {
      "inputs": [],
      "name": "zapIns",
      "outputs": [
        {
          "internalType": "contract IYuzuZap",
          "name": "",
          "type": "address"
        }
      ],
      "stateMutability": "view",
      "type": "function"
    },
    {
      "inputs": [
        {
          "internalType": "address[]",
          "name": "rewardTokens",
          "type": "address[]"
        }
      ],
      "name": "zapRewards",
      "outputs": [],
      "stateMutability": "nonpayable",
      "type": "function"
    }
  ],
  "bytecode": "0x6101406040523480156200001257600080fd5b506040516200567b3803806200567b833981016040819052620000359162000e80565b85858585858585856000620000496200079a565b600080546001600160a01b0319166001600160a01b0383169081178255604051929350917f8be0079c531659141344cd1fd0a4f28419497f9722a3daafe3b4186f6b6457e0908290a35060018081905550600080620000b484846200079e60201b6200195f1760201c565b915091506060826001600160a01b03166306fdde036040518163ffffffff1660e01b815260040160006040518083038186803b158015620000f457600080fd5b505afa15801562000109573d6000803e3d6000fd5b505050506040513d6000823e601f3d908101601f1916820160405262000133919081019062000f29565b90506060836001600160a01b03166395d89b416040518163ffffffff1660e01b815260040160006040518083038186803b1580156200017157600080fd5b505afa15801562000186573d6000803e3d6000fd5b505050506040513d6000823e601f3d908101601f19168201604052620001b0919081019062000f29565b90506000846001600160a01b031663313ce5676040518163ffffffff1660e01b815260040160206040518083038186803b158015620001ee57600080fd5b505afa15801562000203573d6000803e3d6000fd5b505050506040513d601f19601f8201168201806040525081019062000229919062000fe4565b90506060846001600160a01b03166306fdde036040518163ffffffff1660e01b815260040160006040518083038186803b1580156200026757600080fd5b505afa1580156200027c573d6000803e3d6000fd5b505050506040513d6000823e601f3d908101601f19168201604052620002a6919081019062000f29565b90506060856001600160a01b03166395d89b416040518163ffffffff1660e01b815260040160006040518083038186803b158015620002e457600080fd5b505afa158015620002f9573d6000803e3d6000fd5b505050506040513d6000823e601f3d908101601f1916820160405262000323919081019062000f29565b90506000866001600160a01b031663313ce5676040518163ffffffff1660e01b815260040160206040518083038186803b1580156200036157600080fd5b505afa15801562000376573d6000803e3d6000fd5b505050506040513d601f19601f820116820180604052508101906200039c919062000fe4565b90506060620003d56040518060400160405280600b81526020016a4d696e696e6746756e642d60a81b815250886200083960201b60201c565b905060606200040e6040518060400160405280600b81526020016a4d696e696e6746756e642d60a81b815250886200083960201b60201c565b90506060620004476040518060400160405280600b81526020016a4d696e696e6746756e642d60a81b815250876200083960201b60201c565b90506060620004806040518060400160405280600b81526020016a4d696e696e6746756e642d60a81b815250876200083960201b60201c565b9050604051806060016040528085858b6040516200049e9062000e49565b620004ac939291906200109b565b604051809103906000f080158015620004c9573d6000803e3d6000fd5b506001600160a01b0390811682528e811660208084019190915260006040938401528351600280549184166001600160a01b031992831617905590840151600380549190931691161790559081015160045580516060810191829052908190849084908990620005399062000e49565b62000547939291906200109b565b604051809103906000f08015801562000564573d6000803e3d6000fd5b506001600160a01b031681526020018c6001600160a01b031681526020016000815250600560008201518160000160006101000a8154816001600160a01b0302191690836001600160a01b0316021790555060208201518160010160006101000a8154816001600160a01b0302191690836001600160a01b0316021790555060408201518160020155905050505050505050505050505050505060008490506000816001600160a01b031663c45a01556040518163ffffffff1660e01b815260040160206040518083038186803b1580156200063f57600080fd5b505afa15801562000654573d6000803e3d6000fd5b505050506040513d601f19601f820116820180604052508101906200067a919062000e57565b90506000816001600160a01b031663e6a439058a8a6040518363ffffffff1660e01b8152600401620006ae92919062001053565b60206040518083038186803b158015620006c757600080fd5b505afa158015620006dc573d6000803e3d6000fd5b505050506040513d601f19601f8201168201806040525081019062000702919062000e57565b6001600160601b0319606085811b821660805284811b821660a05282811b821660c05288811b821660e05287901b1661010052610120859052905062000749898862000884565b62000755888862000884565b62000761898762000884565b6200076d888762000884565b62000779818862000884565b62000785818662000884565b505050505050505050505050505050620012c4565b3390565b600080826001600160a01b0316846001600160a01b03161415620007df5760405162461bcd60e51b8152600401620007d690620010d8565b60405180910390fd5b826001600160a01b0316846001600160a01b0316106200080157828462000804565b83835b90925090506001600160a01b038216620008325760405162461bcd60e51b8152600401620007d6906200119a565b9250929050565b60606200087d83836040518060200160405280600081525060405180602001604052806000815250604051806020016040528060008152506200093860201b60201c565b9392505050565b604051636eb1769f60e11b81526001600160a01b0383169063dd62ed3e90620008b4903090859060040162001053565b60206040518083038186803b158015620008cd57600080fd5b505afa158015620008e2573d6000803e3d6000fd5b505050506040513d601f19601f8201168201806040525081019062000908919062000fcb565b62000934576200093481600019846001600160a01b031662000b7260201b620019e9179092919060201c565b5050565b805182518451865188516060948a948a948a948a948a948a9491909201909201909101016001600160401b03811180156200097257600080fd5b506040519080825280601f01601f1916602001820160405280156200099e576020820181803683370190505b509050806000805b8851811015620009fb57888181518110620009bd57fe5b602001015160f81c60f81b838380600101945081518110620009db57fe5b60200101906001600160f81b031916908160001a905350600101620009a6565b5060005b875181101562000a545787818151811062000a1657fe5b602001015160f81c60f81b83838060010194508151811062000a3457fe5b60200101906001600160f81b031916908160001a905350600101620009ff565b5060005b865181101562000aad5786818151811062000a6f57fe5b602001015160f81c60f81b83838060010194508151811062000a8d57fe5b60200101906001600160f81b031916908160001a90535060010162000a58565b5060005b855181101562000b065785818151811062000ac857fe5b602001015160f81c60f81b83838060010194508151811062000ae657fe5b60200101906001600160f81b031916908160001a90535060010162000ab1565b5060005b845181101562000b5f5784818151811062000b2157fe5b602001015160f81c60f81b83838060010194508151811062000b3f57fe5b60200101906001600160f81b031916908160001a90535060010162000b0a565b50909d9c50505050505050505050505050565b80158062000c015750604051636eb1769f60e11b81526001600160a01b0384169063dd62ed3e9062000bab903090869060040162001053565b60206040518083038186803b15801562000bc457600080fd5b505afa15801562000bd9573d6000803e3d6000fd5b505050506040513d601f19601f8201168201806040525081019062000bff919062000fcb565b155b62000c205760405162461bcd60e51b8152600401620007d6906200121b565b62000c7b8363095ea7b360e01b848460405160240162000c429291906200106d565b60408051808303601f190181529190526020810180516001600160e01b0319939093166001600160e01b039384161790529062000c8016565b505050565b606062000cdc826040518060400160405280602081526020017f5361666545524332303a206c6f772d6c6576656c2063616c6c206661696c6564815250856001600160a01b031662000d1c60201b62001ae8179092919060201c565b80519091501562000c7b578080602001905181019062000cfd919062000f07565b62000c7b5760405162461bcd60e51b8152600401620007d690620011d1565b606062000d2d848460008562000d35565b949350505050565b60608247101562000d5a5760405162461bcd60e51b8152600401620007d6906200111d565b62000d658562000e05565b62000d845760405162461bcd60e51b8152600401620007d69062001163565b60006060866001600160a01b0316858760405162000da3919062001035565b60006040518083038185875af1925050503d806000811462000de2576040519150601f19603f3d011682016040523d82523d6000602084013e62000de7565b606091505b50909250905062000dfa82828662000e0b565b979650505050505050565b3b151590565b6060831562000e1c5750816200087d565b82511562000e2d5782518084602001fd5b8160405162461bcd60e51b8152600401620007d6919062001086565b611272806200440983390190565b60006020828403121562000e69578081fd5b81516001600160a01b03811681146200087d578182fd5b60008060008060008060c0878903121562000e99578182fd5b865162000ea681620012ab565b602088015190965062000eb981620012ab565b604088015190955062000ecc81620012ab565b606088015190945062000edf81620012ab565b608088015190935062000ef281620012ab565b8092505060a087015190509295509295509295565b60006020828403121562000f19578081fd5b815180151581146200087d578182fd5b60006020828403121562000f3b578081fd5b81516001600160401b038082111562000f52578283fd5b818401915084601f83011262000f66578283fd5b81518181111562000f75578384fd5b604051601f8201601f19168101602001838111828210171562000f96578586fd5b60405281815283820160200187101562000fae578485fd5b62000fc182602083016020870162001278565b9695505050505050565b60006020828403121562000fdd578081fd5b5051919050565b60006020828403121562000ff6578081fd5b815160ff811681146200087d578182fd5b600081518084526200102181602086016020860162001278565b601f01601f19169290920160200192915050565b600082516200104981846020870162001278565b9190910192915050565b6001600160a01b0392831681529116602082015260400190565b6001600160a01b03929092168252602082015260400190565b6000602082526200087d602083018462001007565b600060608252620010b0606083018662001007565b8281036020840152620010c4818662001007565b91505060ff83166040830152949350505050565b60208082526025908201527f556e697377617056324c6962726172793a204944454e544943414c5f41444452604082015264455353455360d81b606082015260800190565b60208082526026908201527f416464726573733a20696e73756666696369656e742062616c616e636520666f6040820152651c8818d85b1b60d21b606082015260800190565b6020808252601d908201527f416464726573733a2063616c6c20746f206e6f6e2d636f6e7472616374000000604082015260600190565b6020808252601e908201527f556e697377617056324c6962726172793a205a45524f5f414444524553530000604082015260600190565b6020808252602a908201527f5361666545524332303a204552433230206f7065726174696f6e20646964206e6040820152691bdd081cdd58d8d9595960b21b606082015260800190565b60208082526036908201527f5361666545524332303a20617070726f76652066726f6d206e6f6e2d7a65726f60408201527f20746f206e6f6e2d7a65726f20616c6c6f77616e636500000000000000000000606082015260800190565b60005b83811015620012955781810151838201526020016200127b565b83811115620012a5576000848401525b50505050565b6001600160a01b0381168114620012c157600080fd5b50565b60805160601c60a05160601c60c05160601c60e05160601c6101005160601c61012051613074620013956000398061041d52806104e352806106005280610d9152806110975280611397528061150152806115da5250806103f052806104b65280610d64528061106a5280611368528061143152806114d452806115ab5250806102715280610ea65280610ecc5250806107885280610f105280610fcb5280611670528061172d52806117d352508061193d52508061055a5280610f3152806112b1528061158252506130746000f3fe608060405234801561001057600080fd5b50600436106101375760003560e01c8063881a5528116100b8578063c7b8981c1161007c578063c7b8981c14610226578063d21220a71461022e578063d27fec9814610236578063dc7894cb1461023e578063f2fde38b14610254578063f3fa2e861461026757610137565b8063881a5528146101e85780638da5cb5b146101fb5780638dcb4061146102035780638de692841461020b578063c2767faf1461021e57610137565b80635c3e9760116100ff5780635c3e9760146101a35780635fcbd285146101b657806370f3bdc6146101be578063715018a6146101d85780637d7c2a1c146101e057610137565b806309957b571461013c5780630dfe16811461015a5780631e9a69501461017157806335322f37146101865780633e0dc34e1461018e575b600080fd5b61014461026f565b6040516101519190612972565b60405180910390f35b610162610293565b604051610151939291906129b9565b61018461017f3660046126bd565b6102af565b005b610184610363565b6101966105fe565b6040516101519190612f2d565b6101846101b1366004612784565b610622565b610144610786565b6101c66107aa565b60405161015196959493929190612f5b565b610184610a5c565b610184610ae5565b6101846101f63660046126e7565b610ce3565b6101446110fb565b61018461110a565b6101846102193660046126bd565b6113fd565b61014461142f565b610184611453565b610162611564565b610144611580565b6102466115a4565b604051610151929190612f4d565b6101846102623660046126a2565b61187b565b61014461193b565b7f000000000000000000000000000000000000000000000000000000000000000081565b6002546003546004546001600160a01b03928316929091169083565b306001600160a01b03166335322f376040518163ffffffff1660e01b8152600401600060405180830381600087803b1580156102ea57600080fd5b505af11580156102fe573d6000803e3d6000fd5b5050505061030c8282611b01565b306001600160a01b0316638dcb40616040518163ffffffff1660e01b8152600401600060405180830381600087803b15801561034757600080fd5b505af115801561035b573d6000803e3d6000fd5b505050505050565b6002600154141561038f5760405162461bcd60e51b815260040161038690612ea0565b60405180910390fd5b6002600155333014806103ba57506103a56110fb565b6001600160a01b0316336001600160a01b0316145b6103d65760405162461bcd60e51b815260040161038690612db1565b6040516393f1a40b60e01b81526000906001600160a01b037f000000000000000000000000000000000000000000000000000000000000000016906393f1a40b90610447907f0000000000000000000000000000000000000000000000000000000000000000903090600401612f36565b604080518083038186803b15801561045e57600080fd5b505afa158015610472573d6000803e3d6000fd5b505050506040513d601f19601f8201168201806040525081019061049691906128bb565b51905080156105f757604051630441a3e760e41b81526001600160a01b037f0000000000000000000000000000000000000000000000000000000000000000169063441a3e709061050d907f0000000000000000000000000000000000000000000000000000000000000000908590600401612f4d565b600060405180830381600087803b15801561052757600080fd5b505af115801561053b573d6000803e3d6000fd5b5050600354600654604051635d5155ef60e11b81526001600160a01b037f00000000000000000000000000000000000000000000000000000000000000008116955063baa2abde94506105a3938116921690869060009081903090603c4201906004016129dd565b6040805180830381600087803b1580156105bc57600080fd5b505af11580156105d0573d6000803e3d6000fd5b505050506040513d601f19601f820116820180604052508101906105f49190612906565b50505b5060018055565b7f000000000000000000000000000000000000000000000000000000000000000081565b61062a611da5565b6001600160a01b031661063b6110fb565b6001600160a01b0316146106615760405162461bcd60e51b815260040161038690612cfe565b60005b815181101561078257600082828151811061067b57fe5b6020026020010151600001516001600160a01b031683838151811061069c57fe5b6020026020010151602001518484815181106106b457fe5b6020026020010151604001516040516106cd9190612956565b60006040518083038185875af1925050503d806000811461070a576040519150601f19603f3d011682016040523d82523d6000602084013e61070f565b606091505b50509050606061071e83611da9565b90506060610751826040518060400160405280600d81526020016c01031b0b636103330b4b632b21609d1b815250611e86565b905080836107725760405162461bcd60e51b81526004016103869190612a98565b5050600190920191506106649050565b5050565b7f000000000000000000000000000000000000000000000000000000000000000081565b600080600080600080600080306001600160a01b031663dc7894cb6040518163ffffffff1660e01b8152600401604080518083038186803b1580156107ee57600080fd5b505afa158015610802573d6000803e3d6000fd5b505050506040513d601f19601f820116820180604052508101906108269190612906565b6003546040516370a0823160e01b81529294509092506000916001600160a01b03909116906370a082319061085f903090600401612972565b60206040518083038186803b15801561087757600080fd5b505afa15801561088b573d6000803e3d6000fd5b505050506040513d601f19601f820116820180604052508101906108af91906128ee565b6006546040516370a0823160e01b81529192506000916001600160a01b03909116906370a08231906108e5903090600401612972565b60206040518083038186803b1580156108fd57600080fd5b505afa158015610911573d6000803e3d6000fd5b505050506040513d601f19601f8201168201806040525081019061093591906128ee565b600254604080516318160ddd60e01b815290518786019d508684019a509293506001600160a01b03909116916318160ddd91600480820192602092909190829003018186803b15801561098757600080fd5b505afa15801561099b573d6000803e3d6000fd5b505050506040513d601f19601f820116820180604052508101906109bf91906128ee565b600554604080516318160ddd60e01b81529051929b506001600160a01b03909116916318160ddd91600480820192602092909190829003018186803b158015610a0757600080fd5b505afa158015610a1b573d6000803e3d6000fd5b505050506040513d601f19601f82011682018060405250810190610a3f91906128ee565b955060028001549750600560020154945050505050909192939495565b610a64611da5565b6001600160a01b0316610a756110fb565b6001600160a01b031614610a9b5760405162461bcd60e51b815260040161038690612cfe565b600080546040516001600160a01b03909116907f8be0079c531659141344cd1fd0a4f28419497f9722a3daafe3b4186f6b6457e0908390a3600080546001600160a01b0319169055565b60026001541415610b085760405162461bcd60e51b815260040161038690612ea0565b600260015533301480610b335750610b1e6110fb565b6001600160a01b0316336001600160a01b0316145b610b4f5760405162461bcd60e51b815260040161038690612db1565b600080306001600160a01b031663dc7894cb6040518163ffffffff1660e01b8152600401604080518083038186803b158015610b8a57600080fd5b505afa158015610b9e573d6000803e3d6000fd5b505050506040513d601f19601f82011682018060405250810190610bc29190612906565b6003546040516370a0823160e01b81529294509092506000916001600160a01b03909116906370a0823190610bfb903090600401612972565b60206040518083038186803b158015610c1357600080fd5b505afa158015610c27573d6000803e3d6000fd5b505050506040513d601f19601f82011682018060405250810190610c4b91906128ee565b6006546040516370a0823160e01b81529192506000916001600160a01b03909116906370a0823190610c81903090600401612972565b60206040518083038186803b158015610c9957600080fd5b505afa158015610cad573d6000803e3d6000fd5b505050506040513d601f19601f82011682018060405250810190610cd191906128ee565b93909101600455500160075560018055565b60026001541415610d065760405162461bcd60e51b815260040161038690612ea0565b600260015533301480610d315750610d1c6110fb565b6001600160a01b0316336001600160a01b0316145b610d4d5760405162461bcd60e51b815260040161038690612db1565b604051630441a3e760e41b81526001600160a01b037f0000000000000000000000000000000000000000000000000000000000000000169063441a3e7090610dbc907f000000000000000000000000000000000000000000000000000000000000000090600090600401612f4d565b600060405180830381600087803b158015610dd657600080fd5b505af1158015610dea573d6000803e3d6000fd5b5050505060005b8151811015610fb0576000828281518110610e0857fe5b60200260200101516001600160a01b03166370a08231306040518263ffffffff1660e01b8152600401610e3b9190612972565b60206040518083038186803b158015610e5357600080fd5b505afa158015610e67573d6000803e3d6000fd5b505050506040513d601f19601f82011682018060405250810190610e8b91906128ee565b9050610eca838381518110610e9c57fe5b60200260200101517f0000000000000000000000000000000000000000000000000000000000000000611ecb565b7f00000000000000000000000000000000000000000000000000000000000000006001600160a01b031663cee6202c848481518110610f0557fe5b6020026020010151837f00000000000000000000000000000000000000000000000000000000000000007f0000000000000000000000000000000000000000000000000000000000000000306040518663ffffffff1660e01b8152600401610f71959493929190612a66565b600060405180830381600087803b158015610f8b57600080fd5b505af1158015610f9f573d6000803e3d6000fd5b505060019093019250610df1915050565b506040516370a0823160e01b81526000906001600160a01b037f000000000000000000000000000000000000000000000000000000000000000016906370a0823190611000903090600401612972565b60206040518083038186803b15801561101857600080fd5b505afa15801561102c573d6000803e3d6000fd5b505050506040513d601f19601f8201168201806040525081019061105091906128ee565b604051631c57762b60e31b81529091506001600160a01b037f0000000000000000000000000000000000000000000000000000000000000000169063e2bbb158906110c1907f0000000000000000000000000000000000000000000000000000000000000000908590600401612f4d565b600060405180830381600087803b1580156110db57600080fd5b505af11580156110ef573d6000803e3d6000fd5b50506001805550505050565b6000546001600160a01b031690565b6002600154141561112d5760405162461bcd60e51b815260040161038690612ea0565b60026001553330148061115857506111436110fb565b6001600160a01b0316336001600160a01b0316145b6111745760405162461bcd60e51b815260040161038690612db1565b6003546040516370a0823160e01b81526000916001600160a01b0316906370a08231906111a5903090600401612972565b60206040518083038186803b1580156111bd57600080fd5b505afa1580156111d1573d6000803e3d6000fd5b505050506040513d601f19601f820116820180604052508101906111f591906128ee565b6006546040516370a0823160e01b81529192506000916001600160a01b03909116906370a082319061122b903090600401612972565b60206040518083038186803b15801561124357600080fd5b505afa158015611257573d6000803e3d6000fd5b505050506040513d601f19601f8201168201806040525081019061127b91906128ee565b905060008211801561128d5750600081115b156113f55760035460065460405162e8e33760e81b81526000926001600160a01b037f000000000000000000000000000000000000000000000000000000000000000081169363e8e33700936112fc93831692919091169088908890889081903090603c420190600401612a1d565b606060405180830381600087803b15801561131657600080fd5b505af115801561132a573d6000803e3d6000fd5b505050506040513d601f19601f8201168201806040525081019061134e9190612929565b604051631c57762b60e31b81529093506001600160a01b037f000000000000000000000000000000000000000000000000000000000000000016925063e2bbb15891506113c1907f0000000000000000000000000000000000000000000000000000000000000000908590600401612f4d565b600060405180830381600087803b1580156113db57600080fd5b505af11580156113ef573d6000803e3d6000fd5b50505050505b505060018055565b600260015414156114205760405162461bcd60e51b815260040161038690612ea0565b60026001556113f58282611f63565b7f000000000000000000000000000000000000000000000000000000000000000081565b600260015414156114765760405162461bcd60e51b815260040161038690612ea0565b6002600155333014806114a1575061148c6110fb565b6001600160a01b0316336001600160a01b0316145b6114bd5760405162461bcd60e51b815260040161038690612db1565b604051630441a3e760e41b81526001600160a01b037f0000000000000000000000000000000000000000000000000000000000000000169063441a3e709061152c907f000000000000000000000000000000000000000000000000000000000000000090600090600401612f4d565b600060405180830381600087803b15801561154657600080fd5b505af115801561155a573d6000803e3d6000fd5b5050600180555050565b6005546006546007546001600160a01b03928316929091169083565b7f000000000000000000000000000000000000000000000000000000000000000081565b60008060007f00000000000000000000000000000000000000000000000000000000000000006001600160a01b03166393f1a40b7f0000000000000000000000000000000000000000000000000000000000000000306040518363ffffffff1660e01b8152600401611617929190612f36565b604080518083038186803b15801561162e57600080fd5b505afa158015611642573d6000803e3d6000fd5b505050506040513d601f19601f8201168201806040525081019061166691906128bb565b60000151905060007f00000000000000000000000000000000000000000000000000000000000000006001600160a01b03166318160ddd6040518163ffffffff1660e01b815260040160206040518083038186803b1580156116c757600080fd5b505afa1580156116db573d6000803e3d6000fd5b505050506040513d601f19601f820116820180604052508101906116ff91906128ee565b6003546040516370a0823160e01b81529192506000916001600160a01b03909116906370a0823190611755907f000000000000000000000000000000000000000000000000000000000000000090600401612972565b60206040518083038186803b15801561176d57600080fd5b505afa158015611781573d6000803e3d6000fd5b505050506040513d601f19601f820116820180604052508101906117a591906128ee565b6006546040516370a0823160e01b81529192506000916001600160a01b03909116906370a08231906117fb907f000000000000000000000000000000000000000000000000000000000000000090600401612972565b60206040518083038186803b15801561181357600080fd5b505afa158015611827573d6000803e3d6000fd5b505050506040513d601f19601f8201168201806040525081019061184b91906128ee565b90506118618361185b8487612178565b906121b2565b61186f8461185b8488612178565b95509550505050509091565b611883611da5565b6001600160a01b03166118946110fb565b6001600160a01b0316146118ba5760405162461bcd60e51b815260040161038690612cfe565b6001600160a01b0381166118e05760405162461bcd60e51b815260040161038690612b02565b600080546040516001600160a01b03808516939216917f8be0079c531659141344cd1fd0a4f28419497f9722a3daafe3b4186f6b6457e091a3600080546001600160a01b0319166001600160a01b0392909216919091179055565b7f000000000000000000000000000000000000000000000000000000000000000081565b600080826001600160a01b0316846001600160a01b031614156119945760405162461bcd60e51b815260040161038690612b7f565b826001600160a01b0316846001600160a01b0316106119b45782846119b7565b83835b90925090506001600160a01b0382166119e25760405162461bcd60e51b815260040161038690612e1f565b9250929050565b801580611a715750604051636eb1769f60e11b81526001600160a01b0384169063dd62ed3e90611a1f903090869060040161299f565b60206040518083038186803b158015611a3757600080fd5b505afa158015611a4b573d6000803e3d6000fd5b505050506040513d601f19601f82011682018060405250810190611a6f91906128ee565b155b611a8d5760405162461bcd60e51b815260040161038690612ed7565b611ae38363095ea7b360e01b8484604051602401611aac929190612986565b60408051601f198184030181529190526020810180516001600160e01b03166001600160e01b0319909316929092179091526121e4565b505050565b6060611af78484600085612273565b90505b9392505050565b60008111611b215760405162461bcd60e51b815260040161038690612cb9565b6002546000906001600160a01b0384811691161415611b4c57506003546001600160a01b0316611b8c565b6005546001600160a01b0384811691161415611b7457506006546001600160a01b0316611b8c565b60405162461bcd60e51b815260040161038690612acb565b6000611b9782612334565b90506000846001600160a01b03166318160ddd6040518163ffffffff1660e01b815260040160206040518083038186803b158015611bd457600080fd5b505afa158015611be8573d6000803e3d6000fd5b505050506040513d601f19601f82011682018060405250810190611c0c91906128ee565b90506000611c1e8261185b8786612178565b604051632770a7eb60e21b81529091506001600160a01b03871690639dc29fac90611c4f9033908990600401612986565b602060405180830381600087803b158015611c6957600080fd5b505af1158015611c7d573d6000803e3d6000fd5b505050506040513d601f19601f82011682018060405250810190611ca1919061289b565b5060405163a9059cbb60e01b81526001600160a01b0385169063a9059cbb90611cd09033908590600401612986565b602060405180830381600087803b158015611cea57600080fd5b505af1158015611cfe573d6000803e3d6000fd5b505050506040513d601f19601f82011682018060405250810190611d22919061289b565b506002546001600160a01b0387811691161415611d6357600454811015611d5857600454611d5090826123b3565b600455611d5e565b60006004555b61035b565b6005546001600160a01b038781169116141561035b57600754811015611d9857600754611d9090826123b3565b60075561035b565b6000600755505050505050565b3390565b606081611dce57506040805180820190915260018152600360fc1b6020820152611e81565b8160005b8115611de657600101600a82049150611dd2565b60608167ffffffffffffffff81118015611dff57600080fd5b506040519080825280601f01601f191660200182016040528015611e2a576020820181803683370190505b50859350905060001982015b8315611e7b57600a840660300160f81b82828060019003935081518110611e5957fe5b60200101906001600160f81b031916908160001a905350600a84049350611e36565b50925050505b919050565b6060611ec283836040518060200160405280600081525060405180602001604052806000815250604051806020016040528060008152506123db565b90505b92915050565b604051636eb1769f60e11b81526001600160a01b0383169063dd62ed3e90611ef9903090859060040161299f565b60206040518083038186803b158015611f1157600080fd5b505afa158015611f25573d6000803e3d6000fd5b505050506040513d601f19601f82011682018060405250810190611f4991906128ee565b610782576107826001600160a01b038316826000196119e9565b60008111611f835760405162461bcd60e51b815260040161038690612d33565b6003546000906001600160a01b0384811691161415611fc157506002546004546001600160a01b0390911690611fb99083612600565b600455612014565b6006546001600160a01b0384811691161415611ffc57506005546007546001600160a01b0390911690611ff49083612600565b600755612014565b60405162461bcd60e51b815260040161038690612d7a565b6040516370a0823160e01b81526000906001600160a01b038316906370a0823190612043903090600401612972565b60206040518083038186803b15801561205b57600080fd5b505afa15801561206f573d6000803e3d6000fd5b505050506040513d601f19601f8201168201806040525081019061209391906128ee565b905060006120a085612334565b90506120b76001600160a01b038616333087612625565b6000816120c387612334565b03905060008215806120d3575083155b156120df5750846120ee565b82848302816120ea57fe5b0490505b6040516340c10f1960e01b81526001600160a01b038616906340c10f199061211c9033908590600401612986565b602060405180830381600087803b15801561213657600080fd5b505af115801561214a573d6000803e3d6000fd5b505050506040513d601f19601f8201168201806040525081019061216e919061289b565b5050505050505050565b60008261218757506000611ec5565b8282028284828161219457fe5b0414611ec25760405162461bcd60e51b815260040161038690612c78565b60008082116121d35760405162461bcd60e51b815260040161038690612c41565b8183816121dc57fe5b049392505050565b6060612239826040518060400160405280602081526020017f5361666545524332303a206c6f772d6c6576656c2063616c6c206661696c6564815250856001600160a01b0316611ae89092919063ffffffff16565b805190915015611ae35780806020019051810190612257919061289b565b611ae35760405162461bcd60e51b815260040161038690612e56565b6060824710156122955760405162461bcd60e51b815260040161038690612bfb565b61229e8561264c565b6122ba5760405162461bcd60e51b815260040161038690612de8565b60006060866001600160a01b031685876040516122d79190612956565b60006040518083038185875af1925050503d8060008114612314576040519150601f19603f3d011682016040523d82523d6000602084013e612319565b606091505b5091509150612329828286612652565b979650505050505050565b6040516370a0823160e01b81526000906001600160a01b038316906370a0823190612363903090600401612972565b60206040518083038186803b15801561237b57600080fd5b505afa15801561238f573d6000803e3d6000fd5b505050506040513d601f19601f82011682018060405250810190611ec591906128ee565b6000828211156123d55760405162461bcd60e51b815260040161038690612bc4565b50900390565b805182518451865188516060948a948a948a948a948a948a94919092019092019091010167ffffffffffffffff8111801561241557600080fd5b506040519080825280601f01601f191660200182016040528015612440576020820181803683370190505b509050806000805b88518110156124995788818151811061245d57fe5b602001015160f81c60f81b83838060010194508151811061247a57fe5b60200101906001600160f81b031916908160001a905350600101612448565b5060005b87518110156124ee578781815181106124b257fe5b602001015160f81c60f81b8383806001019450815181106124cf57fe5b60200101906001600160f81b031916908160001a90535060010161249d565b5060005b86518110156125435786818151811061250757fe5b602001015160f81c60f81b83838060010194508151811061252457fe5b60200101906001600160f81b031916908160001a9053506001016124f2565b5060005b85518110156125985785818151811061255c57fe5b602001015160f81c60f81b83838060010194508151811061257957fe5b60200101906001600160f81b031916908160001a905350600101612547565b5060005b84518110156125ed578481815181106125b157fe5b602001015160f81c60f81b8383806001019450815181106125ce57fe5b60200101906001600160f81b031916908160001a90535060010161259c565b50909d9c50505050505050505050505050565b600082820183811015611ec25760405162461bcd60e51b815260040161038690612b48565b612646846323b872dd60e01b858585604051602401611aac939291906129b9565b50505050565b3b151590565b60608315612661575081611afa565b8251156126715782518084602001fd5b8160405162461bcd60e51b81526004016103869190612a98565b80356001600160a01b0381168114611ec557600080fd5b6000602082840312156126b3578081fd5b611ec2838361268b565b600080604083850312156126cf578081fd5b6126d9848461268b565b946020939093013593505050565b600060208083850312156126f9578182fd5b823567ffffffffffffffff81111561270f578283fd5b8301601f8101851361271f578283fd5b803561273261272d82612faa565b612f83565b818152838101908385018584028501860189101561274e578687fd5b8694505b8385101561277857612764898261268b565b835260019490940193918501918501612752565b50979650505050505050565b60006020808385031215612796578182fd5b823567ffffffffffffffff808211156127ad578384fd5b818501915085601f8301126127c0578384fd5b81356127ce61272d82612faa565b81815284810190848601875b8481101561288c5781358701606080601f19838f030112156127fa578a8bfd5b61280381612f83565b8a83013561281081613026565b81526040838101358c83015291830135918983111561282d578c8dfd5b82840193508e603f850112612840578c8dfd5b8b840135925061285261272d84612fca565b8381528f82858701011115612865578d8efd5b612874848e8301848801612fee565b908201528652505092870192908701906001016127da565b50909998505050505050505050565b6000602082840312156128ac578081fd5b81518015158114611ec2578182fd5b6000604082840312156128cc578081fd5b6128d66040612f83565b82518152602083015160208201528091505092915050565b6000602082840312156128ff578081fd5b5051919050565b60008060408385031215612918578182fd5b505080516020909101519092909150565b60008060006060848603121561293d578081fd5b8351925060208401519150604084015190509250925092565b60008251612968818460208701612ffa565b9190910192915050565b6001600160a01b0391909116815260200190565b6001600160a01b03929092168252602082015260400190565b6001600160a01b0392831681529116602082015260400190565b6001600160a01b039384168152919092166020820152604081019190915260600190565b6001600160a01b039788168152958716602087015260408601949094526060850192909252608084015290921660a082015260c081019190915260e00190565b6001600160a01b039889168152968816602088015260408701959095526060860193909352608085019190915260a084015290921660c082015260e08101919091526101000190565b6001600160a01b0395861681526020810194909452918416604084015283166060830152909116608082015260a00190565b6000602082528251806020840152612ab7816040850160208701612ffa565b601f01601f19169190910160400192915050565b6020808252601c908201527f696e76616c6964205f7368617265546f6b656e41646472657373202000000000604082015260600190565b60208082526026908201527f4f776e61626c653a206e6577206f776e657220697320746865207a65726f206160408201526564647265737360d01b606082015260800190565b6020808252601b908201527f536166654d6174683a206164646974696f6e206f766572666c6f770000000000604082015260600190565b60208082526025908201527f556e697377617056324c6962726172793a204944454e544943414c5f41444452604082015264455353455360d81b606082015260800190565b6020808252601e908201527f536166654d6174683a207375627472616374696f6e206f766572666c6f770000604082015260600190565b60208082526026908201527f416464726573733a20696e73756666696369656e742062616c616e636520666f6040820152651c8818d85b1b60d21b606082015260800190565b6020808252601a908201527f536166654d6174683a206469766973696f6e206279207a65726f000000000000604082015260600190565b60208082526021908201527f536166654d6174683a206d756c7469706c69636174696f6e206f766572666c6f6040820152607760f81b606082015260800190565b60208082526025908201527f5f72656465656d20616d6f756e74206d7573742067726561746572207468616e604082015264207a65726f60d81b606082015260800190565b6020808252818101527f4f776e61626c653a2063616c6c6572206973206e6f7420746865206f776e6572604082015260600190565b60208082526027908201527f73756273637269626520616d6f756e74206d7573742067726561746572207468604082015266616e207a65726f60c81b606082015260800190565b6020808252601d908201527f696e76616c6964205f6f726967696e546f6b656e416464726573732020000000604082015260600190565b6020808252601c908201527f53656c663a2063616c6c6572206973206e6f74207468652073656c6600000000604082015260600190565b6020808252601d908201527f416464726573733a2063616c6c20746f206e6f6e2d636f6e7472616374000000604082015260600190565b6020808252601e908201527f556e697377617056324c6962726172793a205a45524f5f414444524553530000604082015260600190565b6020808252602a908201527f5361666545524332303a204552433230206f7065726174696f6e20646964206e6040820152691bdd081cdd58d8d9595960b21b606082015260800190565b6020808252601f908201527f5265656e7472616e637947756172643a207265656e7472616e742063616c6c00604082015260600190565b60208082526036908201527f5361666545524332303a20617070726f76652066726f6d206e6f6e2d7a65726f60408201527520746f206e6f6e2d7a65726f20616c6c6f77616e636560501b606082015260800190565b90815260200190565b9182526001600160a01b0316602082015260400190565b918252602082015260400190565b958652602086019490945260408501929092526060840152608083015260a082015260c00190565b60405181810167ffffffffffffffff81118282101715612fa257600080fd5b604052919050565b600067ffffffffffffffff821115612fc0578081fd5b5060209081020190565b600067ffffffffffffffff821115612fe0578081fd5b50601f01601f191660200190565b82818337506000910152565b60005b83811015613015578181015183820152602001612ffd565b838111156126465750506000910152565b6001600160a01b038116811461303b57600080fd5b5056fea2646970667358221220eef0f3c410e4128f687f270bd9ca597c6ffe8249d229a1590dcebc431d01701c64736f6c634300060c003360806040523480156200001157600080fd5b506040516200127238038062001272833981016040819052620000349162000246565b8251839083906200004d90600390602085019062000103565b5080516200006390600490602084019062000103565b50506005805460ff191660121790555060006200007f620000e9565b60058054610100600160a81b0319166101006001600160a01b03841690810291909117909155604051919250906000907f8be0079c531659141344cd1fd0a4f28419497f9722a3daafe3b4186f6b6457e0908290a350620000e081620000ed565b505050620002c7565b3390565b6005805460ff191660ff92909216919091179055565b828054600181600116156101000203166002900490600052602060002090601f016020900481019282601f106200014657805160ff191683800117855562000176565b8280016001018555821562000176579182015b828111156200017657825182559160200191906001019062000159565b506200018492915062000188565b5090565b5b8082111562000184576000815560010162000189565b600082601f830112620001b0578081fd5b81516001600160401b0380821115620001c7578283fd5b6040516020601f8401601f1916820181018381118382101715620001e9578586fd5b806040525081945083825286818588010111156200020657600080fd5b600092505b838310156200022a57858301810151828401820152918201916200020b565b838311156200023c5760008185840101525b5050505092915050565b6000806000606084860312156200025b578283fd5b83516001600160401b038082111562000272578485fd5b62000280878388016200019f565b9450602086015191508082111562000296578384fd5b50620002a5868287016200019f565b925050604084015160ff81168114620002bc578182fd5b809150509250925092565b610f9b80620002d76000396000f3fe608060405234801561001057600080fd5b50600436106101005760003560e01c8063715018a611610097578063a457c2d711610066578063a457c2d7146101f3578063a9059cbb14610206578063dd62ed3e14610219578063f2fde38b1461022c57610100565b8063715018a6146101b95780638da5cb5b146101c357806395d89b41146101d85780639dc29fac146101e057610100565b8063313ce567116100d3578063313ce5671461016b578063395093511461018057806340c10f191461019357806370a08231146101a657610100565b806306fdde0314610105578063095ea7b31461012357806318160ddd1461014357806323b872dd14610158575b600080fd5b61010d61023f565b60405161011a9190610bdf565b60405180910390f35b610136610131366004610b96565b6102d5565b60405161011a9190610bd4565b61014b6102f3565b60405161011a9190610ea1565b610136610166366004610b56565b6102f9565b610173610380565b60405161011a9190610eaa565b61013661018e366004610b96565b610389565b6101366101a1366004610b96565b6103d7565b61014b6101b4366004610b07565b61042b565b6101c1610446565b005b6101cb6104d5565b60405161011a9190610bc0565b61010d6104e9565b6101366101ee366004610b96565b61054a565b610136610201366004610b96565b610595565b610136610214366004610b96565b6105fd565b61014b610227366004610b22565b610611565b6101c161023a366004610b07565b61063c565b60038054604080516020601f60026000196101006001881615020190951694909404938401819004810282018101909252828152606093909290918301828280156102cb5780601f106102a0576101008083540402835291602001916102cb565b820191906000526020600020905b8154815290600101906020018083116102ae57829003601f168201915b5050505050905090565b60006102e96102e2610708565b848461070c565b5060015b92915050565b60025490565b60006103068484846107c0565b61037684610312610708565b61037185604051806060016040528060288152602001610f19602891396001600160a01b038a16600090815260016020526040812090610350610708565b6001600160a01b0316815260208101919091526040016000205491906108d5565b61070c565b5060019392505050565b60055460ff1690565b60006102e9610396610708565b8461037185600160006103a7610708565b6001600160a01b03908116825260208083019390935260409182016000908120918c168152925290205490610901565b60006103e1610708565b6001600160a01b03166103f26104d5565b6001600160a01b0316146104215760405162461bcd60e51b815260040161041890610d6b565b60405180910390fd5b6102e9838361092d565b6001600160a01b031660009081526020819052604090205490565b61044e610708565b6001600160a01b031661045f6104d5565b6001600160a01b0316146104855760405162461bcd60e51b815260040161041890610d6b565b60055460405160009161010090046001600160a01b0316907f8be0079c531659141344cd1fd0a4f28419497f9722a3daafe3b4186f6b6457e0908390a360058054610100600160a81b0319169055565b60055461010090046001600160a01b031690565b60048054604080516020601f60026000196101006001881615020190951694909404938401819004810282018101909252828152606093909290918301828280156102cb5780601f106102a0576101008083540402835291602001916102cb565b6000610554610708565b6001600160a01b03166105656104d5565b6001600160a01b03161461058b5760405162461bcd60e51b815260040161041890610d6b565b6102e983836109ed565b60006102e96105a2610708565b8461037185604051806060016040528060258152602001610f4160259139600160006105cc610708565b6001600160a01b03908116825260208083019390935260409182016000908120918d168152925290205491906108d5565b60006102e961060a610708565b84846107c0565b6001600160a01b03918216600090815260016020908152604080832093909416825291909152205490565b610644610708565b6001600160a01b03166106556104d5565b6001600160a01b03161461067b5760405162461bcd60e51b815260040161041890610d6b565b6001600160a01b0381166106a15760405162461bcd60e51b815260040161041890610c75565b6005546040516001600160a01b0380841692610100900416907f8be0079c531659141344cd1fd0a4f28419497f9722a3daafe3b4186f6b6457e090600090a3600580546001600160a01b0390921661010002610100600160a81b0319909216919091179055565b3390565b6001600160a01b0383166107325760405162461bcd60e51b815260040161041890610e26565b6001600160a01b0382166107585760405162461bcd60e51b815260040161041890610cbb565b6001600160a01b0380841660008181526001602090815260408083209487168084529490915290819020849055517f8c5be1e5ebec7d5bd14f71427d1e84f3dd0314c0f7b2291e5b200ac8c7c3b925906107b3908590610ea1565b60405180910390a3505050565b6001600160a01b0383166107e65760405162461bcd60e51b815260040161041890610de1565b6001600160a01b03821661080c5760405162461bcd60e51b815260040161041890610c32565b610817838383610ac3565b61085481604051806060016040528060268152602001610ef3602691396001600160a01b03861660009081526020819052604090205491906108d5565b6001600160a01b0380851660009081526020819052604080822093909355908416815220546108839082610901565b6001600160a01b0380841660008181526020819052604090819020939093559151908516907fddf252ad1be2c89b69c2b068fc378daa952ba7f163c4a11628f55a4df523b3ef906107b3908590610ea1565b600081848411156108f95760405162461bcd60e51b81526004016104189190610bdf565b505050900390565b6000828201838110156109265760405162461bcd60e51b815260040161041890610cfd565b9392505050565b6001600160a01b0382166109535760405162461bcd60e51b815260040161041890610e6a565b61095f60008383610ac3565b60025461096c9082610901565b6002556001600160a01b0382166000908152602081905260409020546109929082610901565b6001600160a01b0383166000818152602081905260408082209390935591519091907fddf252ad1be2c89b69c2b068fc378daa952ba7f163c4a11628f55a4df523b3ef906109e1908590610ea1565b60405180910390a35050565b6001600160a01b038216610a135760405162461bcd60e51b815260040161041890610da0565b610a1f82600083610ac3565b610a5c81604051806060016040528060228152602001610ed1602291396001600160a01b03851660009081526020819052604090205491906108d5565b6001600160a01b038316600090815260208190526040902055600254610a829082610ac8565b6002556040516000906001600160a01b038416907fddf252ad1be2c89b69c2b068fc378daa952ba7f163c4a11628f55a4df523b3ef906109e1908590610ea1565b505050565b600082821115610aea5760405162461bcd60e51b815260040161041890610d34565b50900390565b80356001600160a01b03811681146102ed57600080fd5b600060208284031215610b18578081fd5b6109268383610af0565b60008060408385031215610b34578081fd5b610b3e8484610af0565b9150610b4d8460208501610af0565b90509250929050565b600080600060608486031215610b6a578081fd5b8335610b7581610eb8565b92506020840135610b8581610eb8565b929592945050506040919091013590565b60008060408385031215610ba8578182fd5b610bb28484610af0565b946020939093013593505050565b6001600160a01b0391909116815260200190565b901515815260200190565b6000602080835283518082850152825b81811015610c0b57858101830151858201604001528201610bef565b81811115610c1c5783604083870101525b50601f01601f1916929092016040019392505050565b60208082526023908201527f45524332303a207472616e7366657220746f20746865207a65726f206164647260408201526265737360e81b606082015260800190565b60208082526026908201527f4f776e61626c653a206e6577206f776e657220697320746865207a65726f206160408201526564647265737360d01b606082015260800190565b60208082526022908201527f45524332303a20617070726f766520746f20746865207a65726f206164647265604082015261737360f01b606082015260800190565b6020808252601b908201527f536166654d6174683a206164646974696f6e206f766572666c6f770000000000604082015260600190565b6020808252601e908201527f536166654d6174683a207375627472616374696f6e206f766572666c6f770000604082015260600190565b6020808252818101527f4f776e61626c653a2063616c6c6572206973206e6f7420746865206f776e6572604082015260600190565b60208082526021908201527f45524332303a206275726e2066726f6d20746865207a65726f206164647265736040820152607360f81b606082015260800190565b60208082526025908201527f45524332303a207472616e736665722066726f6d20746865207a65726f206164604082015264647265737360d81b606082015260800190565b60208082526024908201527f45524332303a20617070726f76652066726f6d20746865207a65726f206164646040820152637265737360e01b606082015260800190565b6020808252601f908201527f45524332303a206d696e7420746f20746865207a65726f206164647265737300604082015260600190565b90815260200190565b60ff91909116815260200190565b6001600160a01b0381168114610ecd57600080fd5b5056fe45524332303a206275726e20616d6f756e7420657863656564732062616c616e636545524332303a207472616e7366657220616d6f756e7420657863656564732062616c616e636545524332303a207472616e7366657220616d6f756e74206578636565647320616c6c6f77616e636545524332303a2064656372656173656420616c6c6f77616e63652062656c6f77207a65726fa264697066735822122070d86ff3796f2340cdcd279057b3c00c690b256b137269d0f7752ad671c41f1364736f6c634300060c0033",
  "linkReferences": {},
  "deployedLinkReferences": {}
}