{
  "address": "0x8397Bede9f19eb281e878EA11fa27cA664568AAB",
  "abi": [
    {
      "inputs": [
        {
          "internalType": "contract IERC20",
          "name": "_yuzuToken",
          "type": "address"
        }
      ],
      "stateMutability": "nonpayable",
      "type": "constructor"
    },
    {
      "anonymous": false,
      "inputs": [
        {
          "indexed": true,
          "internalType": "address",
          "name": "owner",
          "type": "address"
        },
        {
          "indexed": true,
          "internalType": "address",
          "name": "spender",
          "type": "address"
        },
        {
          "indexed": false,
          "internalType": "uint256",
          "name": "value",
          "type": "uint256"
        }
      ],
      "name": "Approval",
      "type": "event"
    },
    {
      "anonymous": false,
      "inputs": [
        {
          "indexed": false,
          "internalType": "uint32",
          "name": "cid",
          "type": "uint32"
        },
        {
          "indexed": false,
          "internalType": "uint256",
          "name": "blockCount",
          "type": "uint256"
        },
        {
          "indexed": false,
          "internalType": "uint256",
          "name": "ratioBase10000",
          "type": "uint256"
        }
      ],
      "name": "ConfigChanged",
      "type": "event"
    },
    {
      "anonymous": false,
      "inputs": [
        {
          "indexed": false,
          "internalType": "uint256",
          "name": "oid",
          "type": "uint256"
        },
        {
          "indexed": false,
          "internalType": "address",
          "name": "from",
          "type": "address"
        },
        {
          "indexed": false,
          "internalType": "uint256",
          "name": "stakedAt",
          "type": "uint256"
        },
        {
          "indexed": false,
          "internalType": "uint256",
          "name": "stakeEndBlockNumber",
          "type": "uint256"
        },
        {
          "indexed": false,
          "internalType": "uint256",
          "name": "depositAmount",
          "type": "uint256"
        },
        {
          "indexed": false,
          "internalType": "uint256",
          "name": "mintAmount",
          "type": "uint256"
        }
      ],
      "name": "OrderCreated",
      "type": "event"
    },
    {
      "anonymous": false,
      "inputs": [
        {
          "indexed": false,
          "internalType": "uint256",
          "name": "oid",
          "type": "uint256"
        },
        {
          "indexed": false,
          "internalType": "uint256",
          "name": "unstakedAt",
          "type": "uint256"
        },
        {
          "indexed": false,
          "internalType": "uint256",
          "name": "unstakedEndBlockNumber",
          "type": "uint256"
        }
      ],
      "name": "OrderUnstaked",
      "type": "event"
    },
    {
      "anonymous": false,
      "inputs": [
        {
          "indexed": false,
          "internalType": "uint256",
          "name": "oid",
          "type": "uint256"
        },
        {
          "indexed": false,
          "internalType": "uint256",
          "name": "withdrawAt",
          "type": "uint256"
        }
      ],
      "name": "OrderWithdrawed",
      "type": "event"
    },
    {
      "anonymous": false,
      "inputs": [
        {
          "indexed": true,
          "internalType": "address",
          "name": "previousOwner",
          "type": "address"
        },
        {
          "indexed": true,
          "internalType": "address",
          "name": "newOwner",
          "type": "address"
        }
      ],
      "name": "OwnershipTransferred",
      "type": "event"
    },
    {
      "anonymous": false,
      "inputs": [
        {
          "indexed": true,
          "internalType": "address",
          "name": "from",
          "type": "address"
        },
        {
          "indexed": true,
          "internalType": "address",
          "name": "to",
          "type": "address"
        },
        {
          "indexed": false,
          "internalType": "uint256",
          "name": "value",
          "type": "uint256"
        }
      ],
      "name": "Transfer",
      "type": "event"
    },
    {
      "inputs": [
        {
          "internalType": "uint256",
          "name": "_blockCount",
          "type": "uint256"
        },
        {
          "internalType": "uint256",
          "name": "_ratioBase10000",
          "type": "uint256"
        }
      ],
      "name": "addConfig",
      "outputs": [],
      "stateMutability": "nonpayable",
      "type": "function"
    },
    {
      "inputs": [
        {
          "internalType": "address",
          "name": "owner",
          "type": "address"
        },
        {
          "internalType": "address",
          "name": "spender",
          "type": "address"
        }
      ],
      "name": "allowance",
      "outputs": [
        {
          "internalType": "uint256",
          "name": "",
          "type": "uint256"
        }
      ],
      "stateMutability": "view",
      "type": "function"
    },
    {
      "inputs": [
        {
          "internalType": "address",
          "name": "spender",
          "type": "address"
        },
        {
          "internalType": "uint256",
          "name": "amount",
          "type": "uint256"
        }
      ],
      "name": "approve",
      "outputs": [
        {
          "internalType": "bool",
          "name": "",
          "type": "bool"
        }
      ],
      "stateMutability": "nonpayable",
      "type": "function"
    },
    {
      "inputs": [
        {
          "internalType": "address",
          "name": "account",
          "type": "address"
        }
      ],
      "name": "balanceOf",
      "outputs": [
        {
          "internalType": "uint256",
          "name": "",
          "type": "uint256"
        }
      ],
      "stateMutability": "view",
      "type": "function"
    },
    {
      "inputs": [],
      "name": "configLength",
      "outputs": [
        {
          "internalType": "uint256",
          "name": "",
          "type": "uint256"
        }
      ],
      "stateMutability": "view",
      "type": "function"
    },
    {
      "inputs": [
        {
          "internalType": "uint256",
          "name": "",
          "type": "uint256"
        }
      ],
      "name": "configs",
      "outputs": [
        {
          "internalType": "uint256",
          "name": "blockCount",
          "type": "uint256"
        },
        {
          "internalType": "uint256",
          "name": "ratioBase10000",
          "type": "uint256"
        }
      ],
      "stateMutability": "view",
      "type": "function"
    },
    {
      "inputs": [],
      "name": "decimals",
      "outputs": [
        {
          "internalType": "uint8",
          "name": "",
          "type": "uint8"
        }
      ],
      "stateMutability": "view",
      "type": "function"
    },
    {
      "inputs": [
        {
          "internalType": "address",
          "name": "spender",
          "type": "address"
        },
        {
          "internalType": "uint256",
          "name": "subtractedValue",
          "type": "uint256"
        }
      ],
      "name": "decreaseAllowance",
      "outputs": [
        {
          "internalType": "bool",
          "name": "",
          "type": "bool"
        }
      ],
      "stateMutability": "nonpayable",
      "type": "function"
    },
    {
      "inputs": [
        {
          "internalType": "address",
          "name": "from",
          "type": "address"
        }
      ],
      "name": "getOrderIds",
      "outputs": [
        {
          "internalType": "uint256[]",
          "name": "ids",
          "type": "uint256[]"
        }
      ],
      "stateMutability": "view",
      "type": "function"
    },
    {
      "inputs": [
        {
          "internalType": "address",
          "name": "spender",
          "type": "address"
        },
        {
          "internalType": "uint256",
          "name": "addedValue",
          "type": "uint256"
        }
      ],
      "name": "increaseAllowance",
      "outputs": [
        {
          "internalType": "bool",
          "name": "",
          "type": "bool"
        }
      ],
      "stateMutability": "nonpayable",
      "type": "function"
    },
    {
      "inputs": [],
      "name": "name",
      "outputs": [
        {
          "internalType": "string",
          "name": "",
          "type": "string"
        }
      ],
      "stateMutability": "view",
      "type": "function"
    },
    {
      "inputs": [],
      "name": "orderLength",
      "outputs": [
        {
          "internalType": "uint256",
          "name": "",
          "type": "uint256"
        }
      ],
      "stateMutability": "view",
      "type": "function"
    },
    {
      "inputs": [
        {
          "internalType": "uint256",
          "name": "",
          "type": "uint256"
        }
      ],
      "name": "orders",
      "outputs": [
        {
          "internalType": "enum YUZUStake.StakeOrderStatus",
          "name": "status",
          "type": "uint8"
        },
        {
          "internalType": "address",
          "name": "from",
          "type": "address"
        },
        {
          "internalType": "uint256",
          "name": "stakedAt",
          "type": "uint256"
        },
        {
          "internalType": "uint256",
          "name": "stakeEndBlockNumber",
          "type": "uint256"
        },
        {
          "internalType": "uint256",
          "name": "unstakedAt",
          "type": "uint256"
        },
        {
          "internalType": "uint256",
          "name": "unstakedEndBlockNumber",
          "type": "uint256"
        },
        {
          "internalType": "uint256",
          "name": "withdrawAt",
          "type": "uint256"
        },
        {
          "internalType": "uint256",
          "name": "depositAmount",
          "type": "uint256"
        },
        {
          "internalType": "uint256",
          "name": "mintAmount",
          "type": "uint256"
        }
      ],
      "stateMutability": "view",
      "type": "function"
    },
    {
      "inputs": [],
      "name": "owner",
      "outputs": [
        {
          "internalType": "address",
          "name": "",
          "type": "address"
        }
      ],
      "stateMutability": "view",
      "type": "function"
    },
    {
      "inputs": [],
      "name": "renounceOwnership",
      "outputs": [],
      "stateMutability": "nonpayable",
      "type": "function"
    },
    {
      "inputs": [
        {
          "internalType": "uint32",
          "name": "_cid",
          "type": "uint32"
        },
        {
          "internalType": "uint256",
          "name": "_blockCount",
          "type": "uint256"
        },
        {
          "internalType": "uint256",
          "name": "_ratioBase10000",
          "type": "uint256"
        }
      ],
      "name": "setConfig",
      "outputs": [],
      "stateMutability": "nonpayable",
      "type": "function"
    },
    {
      "inputs": [
        {
          "internalType": "uint256",
          "name": "_amount",
          "type": "uint256"
        },
        {
          "internalType": "uint32",
          "name": "_cid",
          "type": "uint32"
        }
      ],
      "name": "stake",
      "outputs": [],
      "stateMutability": "nonpayable",
      "type": "function"
    },
    {
      "inputs": [],
      "name": "symbol",
      "outputs": [
        {
          "internalType": "string",
          "name": "",
          "type": "string"
        }
      ],
      "stateMutability": "view",
      "type": "function"
    },
    {
      "inputs": [],
      "name": "totalSupply",
      "outputs": [
        {
          "internalType": "uint256",
          "name": "",
          "type": "uint256"
        }
      ],
      "stateMutability": "view",
      "type": "function"
    },
    {
      "inputs": [
        {
          "internalType": "address",
          "name": "recipient",
          "type": "address"
        },
        {
          "internalType": "uint256",
          "name": "amount",
          "type": "uint256"
        }
      ],
      "name": "transfer",
      "outputs": [
        {
          "internalType": "bool",
          "name": "",
          "type": "bool"
        }
      ],
      "stateMutability": "nonpayable",
      "type": "function"
    },
    {
      "inputs": [
        {
          "internalType": "address",
          "name": "sender",
          "type": "address"
        },
        {
          "internalType": "address",
          "name": "recipient",
          "type": "address"
        },
        {
          "internalType": "uint256",
          "name": "amount",
          "type": "uint256"
        }
      ],
      "name": "transferFrom",
      "outputs": [
        {
          "internalType": "bool",
          "name": "",
          "type": "bool"
        }
      ],
      "stateMutability": "nonpayable",
      "type": "function"
    },
    {
      "inputs": [
        {
          "internalType": "address",
          "name": "newOwner",
          "type": "address"
        }
      ],
      "name": "transferOwnership",
      "outputs": [],
      "stateMutability": "nonpayable",
      "type": "function"
    },
    {
      "inputs": [
        {
          "internalType": "uint256",
          "name": "_oid",
          "type": "uint256"
        }
      ],
      "name": "unstake",
      "outputs": [],
      "stateMutability": "nonpayable",
      "type": "function"
    },
    {
      "inputs": [
        {
          "internalType": "address",
          "name": "",
          "type": "address"
        },
        {
          "internalType": "uint256",
          "name": "",
          "type": "uint256"
        }
      ],
      "name": "userOrdreIds",
      "outputs": [
        {
          "internalType": "uint256",
          "name": "",
          "type": "uint256"
        }
      ],
      "stateMutability": "view",
      "type": "function"
    },
    {
      "inputs": [
        {
          "internalType": "uint256",
          "name": "_oid",
          "type": "uint256"
        }
      ],
      "name": "withdraw",
      "outputs": [],
      "stateMutability": "nonpayable",
      "type": "function"
    },
    {
      "inputs": [],
      "name": "yuzuTokenIns",
      "outputs": [
        {
          "internalType": "contract IERC20",
          "name": "",
          "type": "address"
        }
      ],
      "stateMutability": "view",
      "type": "function"
    }
  ],
  "transactionHash": "0xe74f5d78e0d9385a19632ff06cc29e04d597095fe38bcfc982e5422db665854f",
  "args": [
    "0x59e573F48D379D95064811e3C59546f2f350bb2b"
  ],
  "solcInputHash": "ebfbe84ad362d903b98c96641bcd54c2",
  "bytecode": "0x60a06040523480156200001157600080fd5b50604051620024c6380380620024c68339810160408190526200003491620001cb565b6040805180820182526005808252647859555a5560d81b60208084018281528551808701909652928552840152815191929162000074916003916200012f565b5080516200008a9060049060208401906200012f565b50506005805460ff19166012179055506000620000a66200012b565b60058054610100600160a81b0319166101006001600160a01b03841690810291909117909155604051919250906000907f8be0079c531659141344cd1fd0a4f28419497f9722a3daafe3b4186f6b6457e0908290a35060016006556001600160a01b0381166200011557600080fd5b60601b6001600160601b031916608052620001fb565b3390565b828054600181600116156101000203166002900490600052602060002090601f016020900481019282601f106200017257805160ff1916838001178555620001a2565b82800160010185558215620001a2579182015b82811115620001a257825182559160200191906001019062000185565b50620001b0929150620001b4565b5090565b5b80821115620001b05760008155600101620001b5565b600060208284031215620001dd578081fd5b81516001600160a01b0381168114620001f4578182fd5b9392505050565b60805160601c6122a3620002236000398061094d5280610c7a5280610e6052506122a36000f3fe608060405234801561001057600080fd5b506004361061018d5760003560e01c806339509351116100de57806395d89b4111610097578063a9059cbb11610071578063a9059cbb14610340578063dd62ed3e14610353578063e5e24bb714610366578063f2fde38b146103865761018d565b806395d89b41146102fd578063a457c2d714610305578063a85c38ef146103185761018d565b8063395093511461029f57806370a08231146102b2578063715018a6146102c557806378a96cc0146102cd5780638bdb8da9146102e05780638da5cb5b146102f55761018d565b806319c0c44d1161014b5780632e17de78116101255780632e17de78146102515780632e1a7d4d146102645780632e7468ee14610277578063313ce5671461028a5761018d565b806319c0c44d1461022e57806323b872dd1461023657806326d128fc146102495761018d565b806298fa221461019257806306fdde03146101bc578063095ea7b3146101d15780630e603902146101f1578063157e40891461021157806318160ddd14610226575b600080fd5b6101a56101a036600461190c565b610399565b6040516101b3929190612144565b60405180910390f35b6101c46103c4565b6040516101b39190611ac8565b6101e46101df3660046118c2565b61045a565b6040516101b39190611a69565b6102046101ff3660046118c2565b610478565b6040516101b3919061210a565b61022461021f366004611924565b6104a6565b005b6102046105ac565b6102046105b2565b6101e4610244366004611882565b6105b8565b610204610640565b61022461025f36600461190c565b610646565b61022461027236600461190c565b6107c4565b61022461028536600461197c565b6109c0565b610292610a9d565b6040516101b39190612186565b6101e46102ad3660046118c2565b610aa6565b6102046102c0366004611833565b610af4565b610224610b0f565b6102246102db366004611945565b610b9e565b6102e8610e5e565b6040516101b391906119d4565b6102e8610e82565b6101c4610e96565b6101e46103133660046118c2565b610ef7565b61032b61032636600461190c565b610f5f565b6040516101b399989796959493929190611a74565b6101e461034e3660046118c2565b610fc5565b61020461036136600461184e565b610fd9565b610379610374366004611833565b611004565b6040516101b39190611a25565b610224610394366004611833565b611070565b600881815481106103a657fe5b60009182526020909120600290910201805460019091015490915082565b60038054604080516020601f60026000196101006001881615020190951694909404938401819004810282018101909252828152606093909290918301828280156104505780601f1061042557610100808354040283529160200191610450565b820191906000526020600020905b81548152906001019060200180831161043357829003601f168201915b5050505050905090565b600061046e61046761113c565b8484611140565b5060015b92915050565b6009602052816000526040600020818154811061049157fe5b90600052602060002001600091509150505481565b6104ae61113c565b6001600160a01b03166104bf610e82565b6001600160a01b0316146104ee5760405162461bcd60e51b81526004016104e590611ed1565b60405180910390fd5b6040805180820182528381526020810183815260088054600181018255600082905292517ff3f7a9fe364faab93b216da50a3214154f22a0a2b415b23a84c8169e8b636ee360029094029384015590517ff3f7a9fe364faab93b216da50a3214154f22a0a2b415b23a84c8169e8b636ee4909201919091555490517fa4f9d91be410137ff98970b67572ca629a05dbfcb73a503f655ccde941fadb78916105a091600019919091019085908590612168565b60405180910390a15050565b60025490565b60075490565b60006105c58484846111f4565b610635846105d161113c565b61063085604051806060016040528060288152602001612221602891396001600160a01b038a1660009081526001602052604081209061060f61113c565b6001600160a01b031681526020810191909152604001600020549190611309565b611140565b5060015b9392505050565b60085490565b600754819081106106695760405162461bcd60e51b81526004016104e590611c34565b6002600654141561068c5760405162461bcd60e51b81526004016104e59061209c565b60026006819055506000600783815481106106a357fe5b60009182526020909120600890910201805490915061010090046001600160a01b031633146106e45760405162461bcd60e51b81526004016104e590611b3e565b6000815460ff1660028111156106f657fe5b146107135760405162461bcd60e51b81526004016104e590611f06565b43816002015411156107375760405162461bcd60e51b81526004016104e590611c6b565b610745338260070154611335565b805460ff191660019081178255436003830181905560028301549183015490829003910380821115610775578091505b43808301600485018190556040517f04207f67796c9ca284bacb3dd46fb433127550d3754d39559be5b0e73d344708926107b0928992612152565b60405180910390a150506001600655505050565b600754819081106107e75760405162461bcd60e51b81526004016104e590611c34565b6002600654141561080a5760405162461bcd60e51b81526004016104e59061209c565b60026006556108176117ac565b6007838154811061082457fe5b600091825260209091206040805161012081019091526008909202018054829060ff16600281111561085257fe5b600281111561085d57fe5b815281546001600160a01b03610100918290048116602080850191909152600185015460408501526002850154606085015260038501546080850152600485015460a0850152600585015460c0850152600685015460e08501526007909401549190920152908201519192501633146108e85760405162461bcd60e51b81526004016104e590611b3e565b6001815160028111156108f757fe5b146109145760405162461bcd60e51b81526004016104e590611e85565b438160a0015111156109385760405162461bcd60e51b81526004016104e590611de7565b4360c08201526002815260e081015161097d907f00000000000000000000000000000000000000000000000000000000000000006001600160a01b0316903390611417565b7f4096752b2bcfe0cf8dd6d8648863eedda62f77fd7c2a234e88e58cbe2267c49383436040516109ae929190612144565b60405180910390a15050600160065550565b600854839063ffffffff8216106109e95760405162461bcd60e51b81526004016104e590611d79565b6109f161113c565b6001600160a01b0316610a02610e82565b6001600160a01b031614610a285760405162461bcd60e51b81526004016104e590611ed1565b600060088563ffffffff1681548110610a3d57fe5b60009182526020909120600290910201848155600181018490556040519091507fa4f9d91be410137ff98970b67572ca629a05dbfcb73a503f655ccde941fadb7890610a8e90879087908790612168565b60405180910390a15050505050565b60055460ff1690565b600061046e610ab361113c565b846106308560016000610ac461113c565b6001600160a01b03908116825260208083019390935260409182016000908120918c168152925290205490611472565b6001600160a01b031660009081526020819052604090205490565b610b1761113c565b6001600160a01b0316610b28610e82565b6001600160a01b031614610b4e5760405162461bcd60e51b81526004016104e590611ed1565b60055460405160009161010090046001600160a01b0316907f8be0079c531659141344cd1fd0a4f28419497f9722a3daafe3b4186f6b6457e0908390a360058054610100600160a81b0319169055565b600854819063ffffffff821610610bc75760405162461bcd60e51b81526004016104e590611d79565b60026006541415610bea5760405162461bcd60e51b81526004016104e59061209c565b6002600655610bf7611802565b60088363ffffffff1681548110610c0a57fe5b906000526020600020906002020160405180604001604052908160008201548152602001600182015481525050905060008160000151118015610c51575060008160200151115b610c6d5760405162461bcd60e51b81526004016104e590611cba565b610ca26001600160a01b037f000000000000000000000000000000000000000000000000000000000000000016333087611497565b6000610cc7612710610cc18460200151886114be90919063ffffffff16565b906114f8565b9050610cd3338261152a565b6007805433600081815260096020908152604080832080546001808201835582865284862090910187905582516101208101845285815293840195909552439183018290528851820160608401526080830184905260a0830184905260c0830184905260e083018c905261010083018890528654808601885596909352815160089096027fa66cc928b5edb82af9bd49922954155ab7b0942694bea4ce44661d9a8736c68801805491969394929390929091839160ff199190911690836002811115610d9b57fe5b021790555060208201518154610100600160a81b0319166101006001600160a01b0390921682021782556040808401516001840155606084015160028401556080840151600384015560a0840151600484015560c0840151600584015560e08401516006840155920151600790910155855190517f44b326df7d62dd3fe7d89de1a374cb8d6e20c0beefe56c25d6167e38b541c35691610e47918591339188918201908e908b90612113565b60405180910390a150506001600655505050505050565b7f000000000000000000000000000000000000000000000000000000000000000081565b60055461010090046001600160a01b031690565b60048054604080516020601f60026000196101006001881615020190951694909404938401819004810282018101909252828152606093909290918301828280156104505780601f1061042557610100808354040283529160200191610450565b600061046e610f0461113c565b84610630856040518060600160405280602581526020016122496025913960016000610f2e61113c565b6001600160a01b03908116825260208083019390935260409182016000908120918d16815292529020549190611309565b60078181548110610f6c57fe5b60009182526020909120600890910201805460018201546002830154600384015460048501546005860154600687015460079097015460ff871698506101009096046001600160a01b0316969495939492939192909189565b600061046e610fd261113c565b84846111f4565b6001600160a01b03918216600090815260016020908152604080832093909416825291909152205490565b6001600160a01b03811660009081526009602090815260409182902080548351818402810184019094528084526060939283018282801561106457602002820191906000526020600020905b815481526020019060010190808311611050575b50505050509050919050565b61107861113c565b6001600160a01b0316611089610e82565b6001600160a01b0316146110af5760405162461bcd60e51b81526004016104e590611ed1565b6001600160a01b0381166110d55760405162461bcd60e51b81526004016104e590611b75565b6005546040516001600160a01b0380841692610100900416907f8be0079c531659141344cd1fd0a4f28419497f9722a3daafe3b4186f6b6457e090600090a3600580546001600160a01b0390921661010002610100600160a81b0319909216919091179055565b3390565b6001600160a01b0383166111665760405162461bcd60e51b81526004016104e590611fd7565b6001600160a01b03821661118c5760405162461bcd60e51b81526004016104e590611bbb565b6001600160a01b0380841660008181526001602090815260408083209487168084529490915290819020849055517f8c5be1e5ebec7d5bd14f71427d1e84f3dd0314c0f7b2291e5b200ac8c7c3b925906111e790859061210a565b60405180910390a3505050565b6001600160a01b03831661121a5760405162461bcd60e51b81526004016104e590611f92565b6001600160a01b0382166112405760405162461bcd60e51b81526004016104e590611afb565b61124b83838361146d565b611288816040518060600160405280602681526020016121fb602691396001600160a01b0386166000908152602081905260409020549190611309565b6001600160a01b0380851660009081526020819052604080822093909355908416815220546112b79082611472565b6001600160a01b0380841660008181526020819052604090819020939093559151908516907fddf252ad1be2c89b69c2b068fc378daa952ba7f163c4a11628f55a4df523b3ef906111e790859061210a565b6000818484111561132d5760405162461bcd60e51b81526004016104e59190611ac8565b505050900390565b6001600160a01b03821661135b5760405162461bcd60e51b81526004016104e590611f51565b6113678260008361146d565b6113a4816040518060600160405280602281526020016121d9602291396001600160a01b0385166000908152602081905260409020549190611309565b6001600160a01b0383166000908152602081905260409020556002546113ca90826115de565b6002556040516000906001600160a01b038416907fddf252ad1be2c89b69c2b068fc378daa952ba7f163c4a11628f55a4df523b3ef9061140b90859061210a565b60405180910390a35050565b61146d8363a9059cbb60e01b8484604051602401611436929190611a0c565b60408051601f198184030181529190526020810180516001600160e01b03166001600160e01b031990931692909217909152611606565b505050565b6000828201838110156106395760405162461bcd60e51b81526004016104e590611bfd565b6114b8846323b872dd60e01b858585604051602401611436939291906119e8565b50505050565b6000826114cd57506000610472565b828202828482816114da57fe5b04146106395760405162461bcd60e51b81526004016104e590611e44565b60008082116115195760405162461bcd60e51b81526004016104e590611db0565b81838161152257fe5b049392505050565b6001600160a01b0382166115505760405162461bcd60e51b81526004016104e5906120d3565b61155c6000838361146d565b6002546115699082611472565b6002556001600160a01b03821660009081526020819052604090205461158f9082611472565b6001600160a01b0383166000818152602081905260408082209390935591519091907fddf252ad1be2c89b69c2b068fc378daa952ba7f163c4a11628f55a4df523b3ef9061140b90859061210a565b6000828211156116005760405162461bcd60e51b81526004016104e590611cfc565b50900390565b606061165b826040518060400160405280602081526020017f5361666545524332303a206c6f772d6c6576656c2063616c6c206661696c6564815250856001600160a01b03166116959092919063ffffffff16565b80519091501561146d578080602001905181019061167991906118ec565b61146d5760405162461bcd60e51b81526004016104e590612052565b60606116a484846000856116ac565b949350505050565b6060824710156116ce5760405162461bcd60e51b81526004016104e590611d33565b6116d78561176d565b6116f35760405162461bcd60e51b81526004016104e59061201b565b60006060866001600160a01b0316858760405161171091906119b8565b60006040518083038185875af1925050503d806000811461174d576040519150601f19603f3d011682016040523d82523d6000602084013e611752565b606091505b5091509150611762828286611773565b979650505050505050565b3b151590565b60608315611782575081610639565b8251156117925782518084602001fd5b8160405162461bcd60e51b81526004016104e59190611ac8565b604080516101208101909152806000815260200160006001600160a01b03168152602001600081526020016000815260200160008152602001600081526020016000815260200160008152602001600081525090565b604051806040016040528060008152602001600081525090565b80356001600160a01b038116811461047257600080fd5b600060208284031215611844578081fd5b610639838361181c565b60008060408385031215611860578081fd5b61186a848461181c565b9150611879846020850161181c565b90509250929050565b600080600060608486031215611896578081fd5b83356118a1816121c0565b925060208401356118b1816121c0565b929592945050506040919091013590565b600080604083850312156118d4578182fd5b6118de848461181c565b946020939093013593505050565b6000602082840312156118fd578081fd5b81518015158114610639578182fd5b60006020828403121561191d578081fd5b5035919050565b60008060408385031215611936578182fd5b50508035926020909101359150565b60008060408385031215611957578182fd5b82359150602083013563ffffffff81168114611971578182fd5b809150509250929050565b600080600060608486031215611990578283fd5b833563ffffffff811681146119a3578384fd5b95602085013595506040909401359392505050565b600082516119ca818460208701612194565b9190910192915050565b6001600160a01b0391909116815260200190565b6001600160a01b039384168152919092166020820152604081019190915260600190565b6001600160a01b03929092168252602082015260400190565b6020808252825182820181905260009190848201906040850190845b81811015611a5d57835183529284019291840191600101611a41565b50909695505050505050565b901515815260200190565b610120810160038b10611a8357fe5b9981526001600160a01b0398909816602089015260408801969096526060870194909452608086019290925260a085015260c084015260e08301526101009091015290565b6000602082528251806020840152611ae7816040850160208701612194565b601f01601f19169190910160400192915050565b60208082526023908201527f45524332303a207472616e7366657220746f20746865207a65726f206164647260408201526265737360e81b606082015260800190565b6020808252601b908201527f59757a755374616b653a206e6f74206f72646572206f776e6572200000000000604082015260600190565b60208082526026908201527f4f776e61626c653a206e6577206f776e657220697320746865207a65726f206160408201526564647265737360d01b606082015260800190565b60208082526022908201527f45524332303a20617070726f766520746f20746865207a65726f206164647265604082015261737360f01b606082015260800190565b6020808252601b908201527f536166654d6174683a206164646974696f6e206f766572666c6f770000000000604082015260600190565b6020808252601e908201527f59757a755374616b653a206f726465722073686f756c64206578697374730000604082015260600190565b6020808252602f908201527f59757a755374616b653a2063757272656e7420626c6f636b2073686f756c642060408201526e195e18d95959081cdd185ad9515b99608a1b606082015260800190565b60208082526022908201527f59757a755374616b653a20436f6e6669672073686f756c6420626520696e6974604082015261195960f21b606082015260800190565b6020808252601e908201527f536166654d6174683a207375627472616374696f6e206f766572666c6f770000604082015260600190565b60208082526026908201527f416464726573733a20696e73756666696369656e742062616c616e636520666f6040820152651c8818d85b1b60d21b606082015260800190565b6020808252601f908201527f59757a755374616b653a20636f6e6669672073686f756c642065786973747300604082015260600190565b6020808252601a908201527f536166654d6174683a206469766973696f6e206279207a65726f000000000000604082015260600190565b6020808252603d908201527f59757a755374616b653a2063757272656e7420626c6f636b2073686f756c642060408201527f65786365656420756e7374616b6564456e64426c6f636b4e756d626572000000606082015260800190565b60208082526021908201527f536166654d6174683a206d756c7469706c69636174696f6e206f766572666c6f6040820152607760f81b606082015260800190565b6020808252602c908201527f59757a755374616b653a204f7264657220737461747573206e65656420746f2060408201526b03132903ab739ba30b5b2b2160a51b606082015260800190565b6020808252818101527f4f776e61626c653a2063616c6c6572206973206e6f7420746865206f776e6572604082015260600190565b6020808252602b908201527f59757a755374616b653a204f7264657220737461747573206e65656420746f2060408201526a031329039ba30b5b4b733960ad1b606082015260800190565b60208082526021908201527f45524332303a206275726e2066726f6d20746865207a65726f206164647265736040820152607360f81b606082015260800190565b60208082526025908201527f45524332303a207472616e736665722066726f6d20746865207a65726f206164604082015264647265737360d81b606082015260800190565b60208082526024908201527f45524332303a20617070726f76652066726f6d20746865207a65726f206164646040820152637265737360e01b606082015260800190565b6020808252601d908201527f416464726573733a2063616c6c20746f206e6f6e2d636f6e7472616374000000604082015260600190565b6020808252602a908201527f5361666545524332303a204552433230206f7065726174696f6e20646964206e6040820152691bdd081cdd58d8d9595960b21b606082015260800190565b6020808252601f908201527f5265656e7472616e637947756172643a207265656e7472616e742063616c6c00604082015260600190565b6020808252601f908201527f45524332303a206d696e7420746f20746865207a65726f206164647265737300604082015260600190565b90815260200190565b9586526001600160a01b0394909416602086015260408501929092526060840152608083015260a082015260c00190565b918252602082015260400190565b9283526020830191909152604082015260600190565b63ffffffff9390931683526020830191909152604082015260600190565b60ff91909116815260200190565b60005b838110156121af578181015183820152602001612197565b838111156114b85750506000910152565b6001600160a01b03811681146121d557600080fd5b5056fe45524332303a206275726e20616d6f756e7420657863656564732062616c616e636545524332303a207472616e7366657220616d6f756e7420657863656564732062616c616e636545524332303a207472616e7366657220616d6f756e74206578636565647320616c6c6f77616e636545524332303a2064656372656173656420616c6c6f77616e63652062656c6f77207a65726fa2646970667358221220f7190d282b5dc024df1ace63e8a37f515e711eb4e059e80e09c5992a3208263764736f6c634300060c0033",
  "devdoc": {
    "kind": "dev",
    "methods": {
      "addConfig(uint256,uint256)": {
        "params": {
          "_blockCount": "address of YUZU token",
          "_ratioBase10000": "address of YUZU token"
        }
      },
      "allowance(address,address)": {
        "details": "See {IERC20-allowance}."
      },
      "approve(address,uint256)": {
        "details": "See {IERC20-approve}. Requirements: - `spender` cannot be the zero address."
      },
      "balanceOf(address)": {
        "details": "See {IERC20-balanceOf}."
      },
      "constructor": {
        "params": {
          "_yuzuToken": "address of YUZU token"
        }
      },
      "decimals()": {
        "details": "Returns the number of decimals used to get its user representation. For example, if `decimals` equals `2`, a balance of `505` tokens should be displayed to a user as `5,05` (`505 / 10 ** 2`). Tokens usually opt for a value of 18, imitating the relationship between Ether and Wei. This is the value {ERC20} uses, unless {_setupDecimals} is called. NOTE: This information is only used for _display_ purposes: it in no way affects any of the arithmetic of the contract, including {IERC20-balanceOf} and {IERC20-transfer}."
      },
      "decreaseAllowance(address,uint256)": {
        "details": "Atomically decreases the allowance granted to `spender` by the caller. This is an alternative to {approve} that can be used as a mitigation for problems described in {IERC20-approve}. Emits an {Approval} event indicating the updated allowance. Requirements: - `spender` cannot be the zero address. - `spender` must have allowance for the caller of at least `subtractedValue`."
      },
      "increaseAllowance(address,uint256)": {
        "details": "Atomically increases the allowance granted to `spender` by the caller. This is an alternative to {approve} that can be used as a mitigation for problems described in {IERC20-approve}. Emits an {Approval} event indicating the updated allowance. Requirements: - `spender` cannot be the zero address."
      },
      "name()": {
        "details": "Returns the name of the token."
      },
      "owner()": {
        "details": "Returns the address of the current owner."
      },
      "renounceOwnership()": {
        "details": "Leaves the contract without owner. It will not be possible to call `onlyOwner` functions anymore. Can only be called by the current owner. NOTE: Renouncing ownership will leave the contract without an owner, thereby removing any functionality that is only available to the owner."
      },
      "setConfig(uint32,uint256,uint256)": {
        "params": {
          "_blockCount": "address of YUZU token",
          "_cid": "index of config",
          "_ratioBase10000": "address of YUZU token"
        }
      },
      "stake(uint256,uint32)": {
        "params": {
          "_amount": "amount  of yuzu to stake",
          "_cid": "config index of StakeConfigs"
        }
      },
      "symbol()": {
        "details": "Returns the symbol of the token, usually a shorter version of the name."
      },
      "totalSupply()": {
        "details": "See {IERC20-totalSupply}."
      },
      "transfer(address,uint256)": {
        "details": "See {IERC20-transfer}. Requirements: - `recipient` cannot be the zero address. - the caller must have a balance of at least `amount`."
      },
      "transferFrom(address,address,uint256)": {
        "details": "See {IERC20-transferFrom}. Emits an {Approval} event indicating the updated allowance. This is not required by the EIP. See the note at the beginning of {ERC20}. Requirements: - `sender` and `recipient` cannot be the zero address. - `sender` must have a balance of at least `amount`. - the caller must have allowance for ``sender``'s tokens of at least `amount`."
      },
      "transferOwnership(address)": {
        "details": "Transfers ownership of the contract to a new account (`newOwner`). Can only be called by the current owner."
      },
      "unstake(uint256)": {
        "params": {
          "_oid": "order id"
        }
      },
      "withdraw(uint256)": {
        "params": {
          "_oid": "order id"
        }
      }
    },
    "version": 1
  },
  "userdoc": {
    "kind": "user",
    "methods": {
      "addConfig(uint256,uint256)": {
        "notice": "add stake's config by staked last block count and xYUZU mint ratio"
      },
      "setConfig(uint32,uint256,uint256)": {
        "notice": "update stake's config by staked last block count and xYUZU mint ratio"
      },
      "stake(uint256,uint32)": {
        "notice": "Stake YUZU to mint xYUZU"
      },
      "unstake(uint256)": {
        "notice": "Unstake by burning xYUZU to get back YUZU, notice should still wait for unstake end before really withdrawing yuzu"
      },
      "withdraw(uint256)": {
        "notice": "Withdraw unstaked YUZU"
      }
    },
    "version": 1
  },
  "storageLayout": {
    "storage": [
      {
        "astId": 493,
        "contract": "contracts/YuzuStake.sol:YUZUStake",
        "label": "_balances",
        "offset": 0,
        "slot": "0",
        "type": "t_mapping(t_address,t_uint256)"
      },
      {
        "astId": 499,
        "contract": "contracts/YuzuStake.sol:YUZUStake",
        "label": "_allowances",
        "offset": 0,
        "slot": "1",
        "type": "t_mapping(t_address,t_mapping(t_address,t_uint256))"
      },
      {
        "astId": 501,
        "contract": "contracts/YuzuStake.sol:YUZUStake",
        "label": "_totalSupply",
        "offset": 0,
        "slot": "2",
        "type": "t_uint256"
      },
      {
        "astId": 503,
        "contract": "contracts/YuzuStake.sol:YUZUStake",
        "label": "_name",
        "offset": 0,
        "slot": "3",
        "type": "t_string_storage"
      },
      {
        "astId": 505,
        "contract": "contracts/YuzuStake.sol:YUZUStake",
        "label": "_symbol",
        "offset": 0,
        "slot": "4",
        "type": "t_string_storage"
      },
      {
        "astId": 507,
        "contract": "contracts/YuzuStake.sol:YUZUStake",
        "label": "_decimals",
        "offset": 0,
        "slot": "5",
        "type": "t_uint8"
      },
      {
        "astId": 7,
        "contract": "contracts/YuzuStake.sol:YUZUStake",
        "label": "_owner",
        "offset": 1,
        "slot": "5",
        "type": "t_address"
      },
      {
        "astId": 2208,
        "contract": "contracts/YuzuStake.sol:YUZUStake",
        "label": "_status",
        "offset": 0,
        "slot": "6",
        "type": "t_uint256"
      },
      {
        "astId": 6867,
        "contract": "contracts/YuzuStake.sol:YUZUStake",
        "label": "orders",
        "offset": 0,
        "slot": "7",
        "type": "t_array(t_struct(StakeOrder)6859_storage)dyn_storage"
      },
      {
        "astId": 6870,
        "contract": "contracts/YuzuStake.sol:YUZUStake",
        "label": "configs",
        "offset": 0,
        "slot": "8",
        "type": "t_array(t_struct(StakeConfig)6864_storage)dyn_storage"
      },
      {
        "astId": 6875,
        "contract": "contracts/YuzuStake.sol:YUZUStake",
        "label": "userOrdreIds",
        "offset": 0,
        "slot": "9",
        "type": "t_mapping(t_address,t_array(t_uint256)dyn_storage)"
      }
    ],
    "types": {
      "t_address": {
        "encoding": "inplace",
        "label": "address",
        "numberOfBytes": "20"
      },
      "t_array(t_struct(StakeConfig)6864_storage)dyn_storage": {
        "base": "t_struct(StakeConfig)6864_storage",
        "encoding": "dynamic_array",
        "label": "struct YUZUStake.StakeConfig[]",
        "numberOfBytes": "32"
      },
      "t_array(t_struct(StakeOrder)6859_storage)dyn_storage": {
        "base": "t_struct(StakeOrder)6859_storage",
        "encoding": "dynamic_array",
        "label": "struct YUZUStake.StakeOrder[]",
        "numberOfBytes": "32"
      },
      "t_array(t_uint256)dyn_storage": {
        "base": "t_uint256",
        "encoding": "dynamic_array",
        "label": "uint256[]",
        "numberOfBytes": "32"
      },
      "t_enum(StakeOrderStatus)6840": {
        "encoding": "inplace",
        "label": "enum YUZUStake.StakeOrderStatus",
        "numberOfBytes": "1"
      },
      "t_mapping(t_address,t_array(t_uint256)dyn_storage)": {
        "encoding": "mapping",
        "key": "t_address",
        "label": "mapping(address => uint256[])",
        "numberOfBytes": "32",
        "value": "t_array(t_uint256)dyn_storage"
      },
      "t_mapping(t_address,t_mapping(t_address,t_uint256))": {
        "encoding": "mapping",
        "key": "t_address",
        "label": "mapping(address => mapping(address => uint256))",
        "numberOfBytes": "32",
        "value": "t_mapping(t_address,t_uint256)"
      },
      "t_mapping(t_address,t_uint256)": {
        "encoding": "mapping",
        "key": "t_address",
        "label": "mapping(address => uint256)",
        "numberOfBytes": "32",
        "value": "t_uint256"
      },
      "t_string_storage": {
        "encoding": "bytes",
        "label": "string",
        "numberOfBytes": "32"
      },
      "t_struct(StakeConfig)6864_storage": {
        "encoding": "inplace",
        "label": "struct YUZUStake.StakeConfig",
        "members": [
          {
            "astId": 6861,
            "contract": "contracts/YuzuStake.sol:YUZUStake",
            "label": "blockCount",
            "offset": 0,
            "slot": "0",
            "type": "t_uint256"
          },
          {
            "astId": 6863,
            "contract": "contracts/YuzuStake.sol:YUZUStake",
            "label": "ratioBase10000",
            "offset": 0,
            "slot": "1",
            "type": "t_uint256"
          }
        ],
        "numberOfBytes": "64"
      },
      "t_struct(StakeOrder)6859_storage": {
        "encoding": "inplace",
        "label": "struct YUZUStake.StakeOrder",
        "members": [
          {
            "astId": 6842,
            "contract": "contracts/YuzuStake.sol:YUZUStake",
            "label": "status",
            "offset": 0,
            "slot": "0",
            "type": "t_enum(StakeOrderStatus)6840"
          },
          {
            "astId": 6844,
            "contract": "contracts/YuzuStake.sol:YUZUStake",
            "label": "from",
            "offset": 1,
            "slot": "0",
            "type": "t_address"
          },
          {
            "astId": 6846,
            "contract": "contracts/YuzuStake.sol:YUZUStake",
            "label": "stakedAt",
            "offset": 0,
            "slot": "1",
            "type": "t_uint256"
          },
          {
            "astId": 6848,
            "contract": "contracts/YuzuStake.sol:YUZUStake",
            "label": "stakeEndBlockNumber",
            "offset": 0,
            "slot": "2",
            "type": "t_uint256"
          },
          {
            "astId": 6850,
            "contract": "contracts/YuzuStake.sol:YUZUStake",
            "label": "unstakedAt",
            "offset": 0,
            "slot": "3",
            "type": "t_uint256"
          },
          {
            "astId": 6852,
            "contract": "contracts/YuzuStake.sol:YUZUStake",
            "label": "unstakedEndBlockNumber",
            "offset": 0,
            "slot": "4",
            "type": "t_uint256"
          },
          {
            "astId": 6854,
            "contract": "contracts/YuzuStake.sol:YUZUStake",
            "label": "withdrawAt",
            "offset": 0,
            "slot": "5",
            "type": "t_uint256"
          },
          {
            "astId": 6856,
            "contract": "contracts/YuzuStake.sol:YUZUStake",
            "label": "depositAmount",
            "offset": 0,
            "slot": "6",
            "type": "t_uint256"
          },
          {
            "astId": 6858,
            "contract": "contracts/YuzuStake.sol:YUZUStake",
            "label": "mintAmount",
            "offset": 0,
            "slot": "7",
            "type": "t_uint256"
          }
        ],
        "numberOfBytes": "256"
      },
      "t_uint256": {
        "encoding": "inplace",
        "label": "uint256",
        "numberOfBytes": "32"
      },
      "t_uint8": {
        "encoding": "inplace",
        "label": "uint8",
        "numberOfBytes": "1"
      }
    }
  }
}